{
  "_format": "hh-sol-artifact-1",
  "contractName": "DuelManager",
  "sourceName": "contracts/DuelManager.sol",
  "abi": [
    {
      "inputs": [
        {
          "internalType": "address",
          "name": "_priceOracle",
          "type": "address"
        },
        {
          "internalType": "address",
          "name": "_feeCollector",
          "type": "address"
        }
      ],
      "stateMutability": "nonpayable",
      "type": "constructor"
    },
    {
      "inputs": [
        {
          "internalType": "address",
          "name": "owner",
          "type": "address"
        }
      ],
      "name": "OwnableInvalidOwner",
      "type": "error"
    },
    {
      "inputs": [
        {
          "internalType": "address",
          "name": "account",
          "type": "address"
        }
      ],
      "name": "OwnableUnauthorizedAccount",
      "type": "error"
    },
    {
      "inputs": [],
      "name": "ReentrancyGuardReentrantCall",
      "type": "error"
    },
    {
      "anonymous": false,
      "inputs": [
        {
          "indexed": true,
          "internalType": "uint256",
          "name": "duelId",
          "type": "uint256"
        },
        {
          "indexed": true,
          "internalType": "address",
          "name": "creator",
          "type": "address"
        },
        {
          "indexed": false,
          "internalType": "uint256",
          "name": "stakeAmount",
          "type": "uint256"
        },
        {
          "indexed": false,
          "internalType": "enum DuelManager.DuelDuration",
          "name": "duration",
          "type": "uint8"
        }
      ],
      "name": "DuelCreated",
      "type": "event"
    },
    {
      "anonymous": false,
      "inputs": [
        {
          "indexed": true,
          "internalType": "uint256",
          "name": "duelId",
          "type": "uint256"
        },
        {
          "indexed": false,
          "internalType": "uint256",
          "name": "endTime",
          "type": "uint256"
        }
      ],
      "name": "DuelEnded",
      "type": "event"
    },
    {
      "anonymous": false,
      "inputs": [
        {
          "indexed": true,
          "internalType": "uint256",
          "name": "duelId",
          "type": "uint256"
        },
        {
          "indexed": true,
          "internalType": "address",
          "name": "opponent",
          "type": "address"
        },
        {
          "indexed": false,
          "internalType": "uint256",
          "name": "totalPot",
          "type": "uint256"
        }
      ],
      "name": "DuelJoined",
      "type": "event"
    },
    {
      "anonymous": false,
      "inputs": [
        {
          "indexed": true,
          "internalType": "uint256",
          "name": "duelId",
          "type": "uint256"
        },
        {
          "indexed": true,
          "internalType": "address",
          "name": "player",
          "type": "address"
        },
        {
          "indexed": false,
          "internalType": "string",
          "name": "cryptoSymbol",
          "type": "string"
        },
        {
          "indexed": false,
          "internalType": "bool",
          "name": "predictedHigher",
          "type": "bool"
        },
        {
          "indexed": false,
          "internalType": "uint256",
          "name": "predictionNumber",
          "type": "uint256"
        }
      ],
      "name": "DuelPredictionMade",
      "type": "event"
    },
    {
      "anonymous": false,
      "inputs": [
        {
          "indexed": true,
          "internalType": "uint256",
          "name": "duelId",
          "type": "uint256"
        },
        {
          "indexed": true,
          "internalType": "address",
          "name": "winner",
          "type": "address"
        },
        {
          "indexed": false,
          "internalType": "uint256",
          "name": "prize",
          "type": "uint256"
        },
        {
          "indexed": false,
          "internalType": "bool",
          "name": "isTie",
          "type": "bool"
        }
      ],
      "name": "DuelResolved",
      "type": "event"
    },
    {
      "anonymous": false,
      "inputs": [
        {
          "indexed": false,
          "internalType": "address",
          "name": "newFeeCollector",
          "type": "address"
        }
      ],
      "name": "FeeCollectorUpdated",
      "type": "event"
    },
    {
      "anonymous": false,
      "inputs": [
        {
          "indexed": true,
          "internalType": "address",
          "name": "previousOwner",
          "type": "address"
        },
        {
          "indexed": true,
          "internalType": "address",
          "name": "newOwner",
          "type": "address"
        }
      ],
      "name": "OwnershipTransferred",
      "type": "event"
    },
    {
      "anonymous": false,
      "inputs": [
        {
          "indexed": false,
          "internalType": "uint256",
          "name": "newFeeRate",
          "type": "uint256"
        }
      ],
      "name": "PlatformFeeUpdated",
      "type": "event"
    },
    {
      "inputs": [],
      "name": "MAX_FEE_RATE",
      "outputs": [
        {
          "internalType": "uint256",
          "name": "",
          "type": "uint256"
        }
      ],
      "stateMutability": "view",
      "type": "function"
    },
    {
      "inputs": [
        {
          "internalType": "uint256",
          "name": "duelId",
          "type": "uint256"
        }
      ],
      "name": "cancelDuel",
      "outputs": [],
      "stateMutability": "nonpayable",
      "type": "function"
    },
    {
      "inputs": [
        {
          "internalType": "enum DuelManager.DuelDuration",
          "name": "duration",
          "type": "uint8"
        }
      ],
      "name": "createDuel",
      "outputs": [],
      "stateMutability": "payable",
      "type": "function"
    },
    {
      "inputs": [],
      "name": "duelCounter",
      "outputs": [
        {
          "internalType": "uint256",
          "name": "",
          "type": "uint256"
        }
      ],
      "stateMutability": "view",
      "type": "function"
    },
    {
      "inputs": [
        {
          "internalType": "uint256",
          "name": "",
          "type": "uint256"
        },
        {
          "internalType": "address",
          "name": "",
          "type": "address"
        },
        {
          "internalType": "uint256",
          "name": "",
          "type": "uint256"
        }
      ],
      "name": "duelPredictions",
      "outputs": [
        {
          "internalType": "string",
          "name": "cryptoSymbol",
          "type": "string"
        },
        {
          "internalType": "int256",
          "name": "initialPrice",
          "type": "int256"
        },
        {
          "internalType": "bool",
          "name": "predictedHigher",
          "type": "bool"
        },
        {
          "internalType": "uint256",
          "name": "timestamp",
          "type": "uint256"
        },
        {
          "internalType": "uint256",
          "name": "resolutionTime",
          "type": "uint256"
        },
        {
          "internalType": "bool",
          "name": "resolved",
          "type": "bool"
        },
        {
          "internalType": "bool",
          "name": "won",
          "type": "bool"
        }
      ],
      "stateMutability": "view",
      "type": "function"
    },
    {
      "inputs": [
        {
          "internalType": "uint256",
          "name": "",
          "type": "uint256"
        }
      ],
      "name": "duels",
      "outputs": [
        {
          "internalType": "uint256",
          "name": "id",
          "type": "uint256"
        },
        {
          "internalType": "address",
          "name": "creator",
          "type": "address"
        },
        {
          "internalType": "address",
          "name": "opponent",
          "type": "address"
        },
        {
          "internalType": "uint256",
          "name": "stakeAmount",
          "type": "uint256"
        },
        {
          "internalType": "enum DuelManager.DuelDuration",
          "name": "duration",
          "type": "uint8"
        },
        {
          "internalType": "enum DuelManager.DuelStatus",
          "name": "status",
          "type": "uint8"
        },
        {
          "internalType": "uint256",
          "name": "startTime",
          "type": "uint256"
        },
        {
          "internalType": "uint256",
          "name": "endTime",
          "type": "uint256"
        },
        {
          "internalType": "uint256",
          "name": "platformFee",
          "type": "uint256"
        },
        {
          "internalType": "uint256",
          "name": "creatorCorrectPredictions",
          "type": "uint256"
        },
        {
          "internalType": "uint256",
          "name": "creatorTotalPredictions",
          "type": "uint256"
        },
        {
          "internalType": "uint256",
          "name": "opponentCorrectPredictions",
          "type": "uint256"
        },
        {
          "internalType": "uint256",
          "name": "opponentTotalPredictions",
          "type": "uint256"
        },
        {
          "internalType": "address",
          "name": "winner",
          "type": "address"
        },
        {
          "internalType": "bool",
          "name": "prizesDistributed",
          "type": "bool"
        }
      ],
      "stateMutability": "view",
      "type": "function"
    },
    {
      "inputs": [
        {
          "internalType": "enum DuelManager.DuelDuration",
          "name": "",
          "type": "uint8"
        }
      ],
      "name": "durationToSeconds",
      "outputs": [
        {
          "internalType": "uint256",
          "name": "",
          "type": "uint256"
        }
      ],
      "stateMutability": "view",
      "type": "function"
    },
    {
      "inputs": [
        {
          "internalType": "uint256",
          "name": "duelId",
          "type": "uint256"
        }
      ],
      "name": "endDuel",
      "outputs": [],
      "stateMutability": "nonpayable",
      "type": "function"
    },
    {
      "inputs": [],
      "name": "feeCollector",
      "outputs": [
        {
          "internalType": "address",
          "name": "",
          "type": "address"
        }
      ],
      "stateMutability": "view",
      "type": "function"
    },
    {
      "inputs": [
        {
          "internalType": "uint256",
          "name": "duelId",
          "type": "uint256"
        }
      ],
      "name": "getDuel",
      "outputs": [
        {
          "components": [
            {
              "internalType": "uint256",
              "name": "id",
              "type": "uint256"
            },
            {
              "internalType": "address",
              "name": "creator",
              "type": "address"
            },
            {
              "internalType": "address",
              "name": "opponent",
              "type": "address"
            },
            {
              "internalType": "uint256",
              "name": "stakeAmount",
              "type": "uint256"
            },
            {
              "internalType": "enum DuelManager.DuelDuration",
              "name": "duration",
              "type": "uint8"
            },
            {
              "internalType": "enum DuelManager.DuelStatus",
              "name": "status",
              "type": "uint8"
            },
            {
              "internalType": "uint256",
              "name": "startTime",
              "type": "uint256"
            },
            {
              "internalType": "uint256",
              "name": "endTime",
              "type": "uint256"
            },
            {
              "internalType": "uint256",
              "name": "platformFee",
              "type": "uint256"
            },
            {
              "internalType": "uint256",
              "name": "creatorCorrectPredictions",
              "type": "uint256"
            },
            {
              "internalType": "uint256",
              "name": "creatorTotalPredictions",
              "type": "uint256"
            },
            {
              "internalType": "uint256",
              "name": "opponentCorrectPredictions",
              "type": "uint256"
            },
            {
              "internalType": "uint256",
              "name": "opponentTotalPredictions",
              "type": "uint256"
            },
            {
              "internalType": "address",
              "name": "winner",
              "type": "address"
            },
            {
              "internalType": "bool",
              "name": "prizesDistributed",
              "type": "bool"
            }
          ],
          "internalType": "struct DuelManager.Duel",
          "name": "",
          "type": "tuple"
        }
      ],
      "stateMutability": "view",
      "type": "function"
    },
    {
      "inputs": [
        {
          "internalType": "uint256",
          "name": "duelId",
          "type": "uint256"
        },
        {
          "internalType": "address",
          "name": "player",
          "type": "address"
        }
      ],
      "name": "getDuelPredictions",
      "outputs": [
        {
          "components": [
            {
              "internalType": "string",
              "name": "cryptoSymbol",
              "type": "string"
            },
            {
              "internalType": "int256",
              "name": "initialPrice",
              "type": "int256"
            },
            {
              "internalType": "bool",
              "name": "predictedHigher",
              "type": "bool"
            },
            {
              "internalType": "uint256",
              "name": "timestamp",
              "type": "uint256"
            },
            {
              "internalType": "uint256",
              "name": "resolutionTime",
              "type": "uint256"
            },
            {
              "internalType": "bool",
              "name": "resolved",
              "type": "bool"
            },
            {
              "internalType": "bool",
              "name": "won",
              "type": "bool"
            }
          ],
          "internalType": "struct DuelManager.DuelPrediction[]",
          "name": "",
          "type": "tuple[]"
        }
      ],
      "stateMutability": "view",
      "type": "function"
    },
    {
      "inputs": [
        {
          "internalType": "uint256",
          "name": "startIndex",
          "type": "uint256"
        },
        {
          "internalType": "uint256",
          "name": "count",
          "type": "uint256"
        }
      ],
      "name": "getOpenDuels",
      "outputs": [
        {
          "internalType": "uint256[]",
          "name": "duelIds",
          "type": "uint256[]"
        }
      ],
      "stateMutability": "view",
      "type": "function"
    },
    {
      "inputs": [
        {
          "internalType": "address",
          "name": "user",
          "type": "address"
        }
      ],
      "name": "getUserDuels",
      "outputs": [
        {
          "internalType": "uint256[]",
          "name": "",
          "type": "uint256[]"
        }
      ],
      "stateMutability": "view",
      "type": "function"
    },
    {
      "inputs": [
        {
          "internalType": "uint256",
          "name": "duelId",
          "type": "uint256"
        }
      ],
      "name": "joinDuel",
      "outputs": [],
      "stateMutability": "payable",
      "type": "function"
    },
    {
      "inputs": [
        {
          "internalType": "uint256",
          "name": "duelId",
          "type": "uint256"
        },
        {
          "internalType": "string",
          "name": "cryptoSymbol",
          "type": "string"
        },
        {
          "internalType": "bool",
          "name": "predictedHigher",
          "type": "bool"
        }
      ],
      "name": "makeDuelPrediction",
      "outputs": [],
      "stateMutability": "nonpayable",
      "type": "function"
    },
    {
      "inputs": [],
      "name": "owner",
      "outputs": [
        {
          "internalType": "address",
          "name": "",
          "type": "address"
        }
      ],
      "stateMutability": "view",
      "type": "function"
    },
    {
      "inputs": [],
      "name": "platformFeeRate",
      "outputs": [
        {
          "internalType": "uint256",
          "name": "",
          "type": "uint256"
        }
      ],
      "stateMutability": "view",
      "type": "function"
    },
    {
      "inputs": [],
      "name": "priceOracle",
      "outputs": [
        {
          "internalType": "contract PriceOracle",
          "name": "",
          "type": "address"
        }
      ],
      "stateMutability": "view",
      "type": "function"
    },
    {
      "inputs": [],
      "name": "renounceOwnership",
      "outputs": [],
      "stateMutability": "nonpayable",
      "type": "function"
    },
    {
      "inputs": [
        {
          "internalType": "uint256",
          "name": "duelId",
          "type": "uint256"
        }
      ],
      "name": "resolveDuel",
      "outputs": [],
      "stateMutability": "nonpayable",
      "type": "function"
    },
    {
      "inputs": [
        {
          "internalType": "address",
          "name": "newOwner",
          "type": "address"
        }
      ],
      "name": "transferOwnership",
      "outputs": [],
      "stateMutability": "nonpayable",
      "type": "function"
    },
    {
      "inputs": [
        {
          "internalType": "address",
          "name": "newFeeCollector",
          "type": "address"
        }
      ],
      "name": "updateFeeCollector",
      "outputs": [],
      "stateMutability": "nonpayable",
      "type": "function"
    },
    {
      "inputs": [
        {
          "internalType": "uint256",
          "name": "newFeeRate",
          "type": "uint256"
        }
      ],
      "name": "updatePlatformFee",
      "outputs": [],
      "stateMutability": "nonpayable",
      "type": "function"
    },
    {
      "inputs": [
        {
          "internalType": "address",
          "name": "newOracle",
          "type": "address"
        }
      ],
      "name": "updatePriceOracle",
      "outputs": [],
      "stateMutability": "nonpayable",
      "type": "function"
    },
    {
      "inputs": [
        {
          "internalType": "address",
          "name": "",
          "type": "address"
        },
        {
          "internalType": "uint256",
          "name": "",
          "type": "uint256"
        }
      ],
      "name": "userDuels",
      "outputs": [
        {
          "internalType": "uint256",
          "name": "",
          "type": "uint256"
        }
      ],
      "stateMutability": "view",
      "type": "function"
    }
  ],
  "bytecode": "0x608034620001bb576200247090601f38839003908101601f19168201906001600160401b03821183831017620001c05780839160409586948552833981010312620001bb576200005d60206200005583620001d6565b9201620001d6565b903315620001a35760008054336001600160a01b03198083168217845586519395939490936001600160a01b0393909284929183167f8be0079c531659141344cd1fd0a4f28419497f9722a3daafe3b4186f6b6457e08980a36001805561012c60075516938415620001615750169182156200011d579181859362093a8095936002541617600255600854161760085580805260096020526201518082822055600181526203f48082822055600281522055516122849081620001ec8239f35b845162461bcd60e51b815260206004820152601d60248201527f496e76616c69642066656520636f6c6c6563746f7220616464726573730000006044820152606490fd5b62461bcd60e51b815260206004820152601660248201527f496e76616c6964206f7261636c652061646472657373000000000000000000006044820152606490fd5b8251631e4fbdf760e01b815260006004820152602490fd5b600080fd5b634e487b7160e01b600052604160045260246000fd5b51906001600160a01b0382168203620001bb5756fe6080604052600436101561001257600080fd5b60003560e01c80630f16942c14611c4e578063113598a514611bca5780631570376e14611bac5780632130b52f14611b545780632630c12f14611b2b5780632e1f256d1461198657806339d1fc8214611900578063565e614f146116d357806359dec467146115fe5780636d36cfc814611390578063715018a614611337578063859a62d01461123557806386a34823146110895780638da5cb5b1461106057806392f6576e14611043578063aa0b598814610fb9578063ad9d8ab314610ef3578063bfbce35b14610976578063c415b95c1461094d578063cdd69a12146105bd578063d2c35ce814610515578063d9c312f4146103b4578063e8097b7e146101db578063eeca08f0146101bd5763f2fde38b1461012f57600080fd5b346101b85760203660031901126101b857610148611c98565b610150611eea565b6001600160a01b0390811690811561019f57600054826001600160601b0360a01b821617600055167f8be0079c531659141344cd1fd0a4f28419497f9722a3daafe3b4186f6b6457e0600080a3005b604051631e4fbdf760e01b815260006004820152602490fd5b600080fd5b346101b85760003660031901126101b8576020600754604051908152f35b6020806003193601126101b8576004356101f3611f66565b806000526003825260406000206004810190815460ff8160081c16600481101561039e576103695760018201546001600160a01b0316331461032d576003820192835434036102ef576002830180546001600160a01b0319163317905561ff0019821661010017905542600583015561026e9060ff16611c7f565b544201908142116102d957600601553360005260058352610293826040600020611f31565b54918260011b92808404600214901517156102d9577f3fd708f1629db9209d2f5ac2ca0ffbe9fbf965e235d3371b27b8e5f1b2e038df906040519384523393a360018055005b634e487b7160e01b600052601160045260246000fd5b60405162461bcd60e51b8152600481018790526016602482015275125b98dbdc9c9958dd081cdd185ad948185b5bdd5b9d60521b6044820152606490fd5b60405162461bcd60e51b815260048101869052601460248201527310d85b9b9bdd081a9bda5b881bdddb88191d595b60621b6044820152606490fd5b60405162461bcd60e51b815260048101869052600d60248201526c223ab2b6103737ba1037b832b760991b6044820152606490fd5b634e487b7160e01b600052602160045260246000fd5b346101b85760203660031901126101b8576103cd611f66565b600435600090815260036020526040902060018101546001600160a01b031690338290036104d057600481019081549160ff8360081c16600481101561039e5761048b5761ff00198316610300179055600c8101805460ff60a01b1916600160a01b17905560030154600090819081908190865af161044a611f89565b50156104565760018055005b60405162461bcd60e51b815260206004820152600d60248201526c1499599d5b990819985a5b1959609a1b6044820152606490fd5b60405162461bcd60e51b815260206004820152601a60248201527f43616e206f6e6c792063616e63656c206f70656e206475656c730000000000006044820152606490fd5b60405162461bcd60e51b815260206004820152601760248201527f4f6e6c792063726561746f722063616e2063616e63656c0000000000000000006044820152606490fd5b346101b85760203660031901126101b85761052e611c98565b610536611eea565b6001600160a01b03168015610586576020817fe5693914d19c789bdee50a362998c0bc8d035a835f9871da5d51152f0582c34f926001600160601b0360a01b6008541617600855604051908152a1005b60405162461bcd60e51b815260206004820152600f60248201526e496e76616c6964206164647265737360881b6044820152606490fd5b346101b8576020806003193601126101b857600435906105db611f66565b8160005260038152604060002091600483019060ff825460081c16600481101561039e5760020361091757600c84019060ff825460a01c166108dc576001948581019260018060a01b0393610633858254168561202a565b6002830191610645868454168661202a565b6000906000916008860154600a8701548082116000146108c15750505086808454165b169781549061030061ff001982541617905588600160a01b916affffffffffffffffffffff60a81b1617179055600384015493848a1b94808604600214901517156102d95760070154938481029481860414811517156102d9576127108795049788926000146108285750600080936106e38294839461201d565b8c1c96879154165af16106f4611f89565b50156107eb57600080808487829554165af161070e611f89565b50156107ad57907fe61206056107eed8c4c81a49a3ccc899ec2bea7aa58ebd6a688cc9f812b719d9604060009381519081528888820152a35b8161075157838055005b60008080938193600854165af1610766611f89565b5015610773578080838055005b6064906040519062461bcd60e51b825260048201526013602482015272119959481d1c985b9cd9995c8819985a5b1959606a1b6044820152fd5b60405162461bcd60e51b815260048101869052601660248201527513dc1c1bdb995b9d081c99599d5b990819985a5b195960521b6044820152606490fd5b60405162461bcd60e51b815260048101879052601560248201527410dc99585d1bdc881c99599d5b990819985a5b1959605a1b6044820152606490fd5b959450909150610838925061201d565b600080808084875af1610849611f89565b50156108845760407fe61206056107eed8c4c81a49a3ccc899ec2bea7aa58ebd6a688cc9f812b719d9918151908152600088820152a3610747565b60405162461bcd60e51b815260048101879052601560248201527415da5b9b995c881c185e5b595b9d0819985a5b1959605a1b6044820152606490fd5b11156108d257508680855416610668565b9150868a92610668565b60405162461bcd60e51b8152600481018590526013602482015272105b1c9958591e48191a5cdd1c9a589d5d1959606a1b6044820152606490fd5b60405162461bcd60e51b815260048101849052600e60248201526d111d595b081b9bdd08195b99195960921b6044820152606490fd5b346101b85760003660031901126101b8576008546040516001600160a01b039091168152602090f35b346101b85760603660031901126101b85760243567ffffffffffffffff81116101b857366023820112156101b85780600401356109b281611ece565b916109c06040519384611eac565b81835236602483830101116101b85781600092602460209301838601378301015260443580151581036101b8576004356000526003602052604060002060ff600482015460081c16600481101561039e576001610a1d9114611fb9565b60018101546001600160a01b031633148015610edd575b15610ea4576006810154421015610e7257600254604051630603fbf960e31b81526020600482018190526001600160a01b03909216918180610a796024820189611d2d565b0381855afa908115610def57600091610e37575b5015610dfb576060604051809263f66a1b7160e01b8252602060048301528180610aba602482018a611d2d565b03915afa908115610def57600091610dbe575b506201518042018042116102d95760405191610ae883611e73565b858352602083015283151560408301524260608301526080820152600060a0820152600060c0820152600435600052600460205260406000203360005260205260406000208054600160401b811015610d9257610b4a91600182018155611d87565b610da857815180519067ffffffffffffffff8211610d9257610b6c8354611da3565b601f8111610d4e575b50602090601f8311600114610cdb57928260c093600593610c219796600092610cd0575b50508160011b916000199060031b1c19161781555b60208401516001820155610bd760408501511515600283019060ff801983541691151516179055565b60608401516003820155608084015160048201550191610c0960a08201511515849060ff801983541691151516179055565b0151815461ff00191690151560081b61ff0016179055565b6001810154336001600160a01b0390911603610cbb5760098101610c458154611f16565b90555b6001810154336001600160a01b0390911603610cb257600901545b610c7860405193606085526060850190611d2d565b911515602084015260408301527fc84b76c5f01c41417fc14068611143ba240923e971659d3a2a2efd6543085245339280600435930390a3005b600b0154610c63565b600b8101610cc98154611f16565b9055610c48565b015190508a80610b99565b908360005260206000209160005b601f1985168110610d36575083600593610c2197969360019360c097601f19811610610d1d575b505050811b018155610bae565b015160001960f88460031b161c191690558a8080610d10565b91926020600181928685015181550194019201610ce9565b836000526020600020601f840160051c810160208510610d8b575b601f830160051c82018110610d7f575050610b75565b60008155600101610d69565b5080610d69565b634e487b7160e01b600052604160045260246000fd5b634e487b7160e01b600052600060045260246000fd5b610de0915060603d606011610de8575b610dd88183611eac565b810190611ff7565b505084610acd565b503d610dce565b6040513d6000823e3d90fd5b60405162461bcd60e51b815260206004820152601460248201527310dc9e5c1d1bc81b9bdd081cdd5c1c1bdc9d195960621b6044820152606490fd5b90506020813d602011610e6a575b81610e5260209383611eac565b810103126101b8575180151581036101b85785610a8d565b3d9150610e45565b60405162461bcd60e51b815260206004820152600a602482015269111d595b08195b99195960b21b6044820152606490fd5b60405162461bcd60e51b8152602060048201526011602482015270139bdd0818481c185c9d1a58da5c185b9d607a1b6044820152606490fd5b5060028101546001600160a01b03163314610a34565b346101b85760203660031901126101b8576004358060005260036020526040600020600481019081549060ff8260081c1690600482101561039e57610f3c600160069314611fb9565b01544210610f7c576102009061ff0019161790557fd23f46e44fc80f78120eadb359dddd8e2019025976693aa9e83a990f986017e36020604051428152a2005b60405162461bcd60e51b8152602060048201526015602482015274111d595b081b9bdd08199a5b9a5cda1959081e595d605a1b6044820152606490fd5b346101b85760203660031901126101b857600435610fd5611eea565b6103e8811161100f576020817f45610d581145924dd7090a5017e5f2b1d6f42213bb2e95707ff86846bbfcb1ca92600755604051908152a1005b60405162461bcd60e51b815260206004820152600c60248201526b08ccaca40e8dede40d0d2ced60a31b6044820152606490fd5b346101b85760003660031901126101b85760206040516103e88152f35b346101b85760003660031901126101b8576000546040516001600160a01b039091168152602090f35b346101b85760403660031901126101b85760065460043590602480356000805b8481106111eb575084808211156111e1576110c39161201d565b905b808210156111d95750905b6110d982612236565b6110e66040519182611eac565b828152601f196110f584612236565b0191602092368484013760009560009460005b878110806111d0575b156111be57806000526003865260ff60046040600020015460081c1660048110156111a9571561114a575b61114590611f16565b611108565b9782811015611168575b61116061114591611f16565b98905061113c565b9584518110156111945761116061118b828b896111459560051b8a010152611f16565b97915050611154565b83634e487b7160e01b60005260326004526000fd5b84634e487b7160e01b60005260216004526000fd5b604051806111cc8782611cc4565b0390f35b50818710611111565b9050906110d0565b50506000906110c5565b80600052600360205260ff60046040600020015460081c1660048110156111a95715611220575b61121b90611f16565b6110a9565b9061122d61121b91611f16565b919050611212565b346101b85760203660031901126101b85760043560005260036020526040600020805490600160a01b6001900360018201541690600160a01b600190036002820154166003820154600483015460058401546006850154600786015491600887015493600988015495600a89015497600b8a015499600c01549a6040519c8d5260208d015260408c015260608b015260808a0160ff8216906112d691611d6d565b60a08a019060081c60ff16906112eb91611d7a565b60c089015260e08801526101008701526101208601526101408501526101608401526101808301526001600160a01b0381166101a083015260a01c60ff1615156101c08201526101e090f35b346101b85760003660031901126101b857611350611eea565b600080546001600160a01b0319811682556001600160a01b03167f8be0079c531659141344cd1fd0a4f28419497f9722a3daafe3b4186f6b6457e08280a3005b60203660031901126101b857600360043510156101b8576113af611f66565b34156115b9576006546113c181611f16565b600655600754604051906113d482611e8f565b828252336020830152600060408301523460608301526113f960043560808401611f25565b600060a0830152600060c0830152600060e0830152610100820152600061012082015260006101408201526000610160820152600061018082015260006101a082015260006101c082015281600052600360205260406000208151815560018060a01b03602083015116600182016001600160601b0360a01b9182825416179055600282019060018060a01b036040850151169082541617905560608201516003820155608082015190600382101561039e5760048101549160a084015192600484101561039e5760ff61ff00600c9560081b1692169061ffff19161717600482015560c0830151600582015560e08301516006820155610100830151600782015561012083015160088201556101408301516009820155610160830151600a820155610180830151600b820155019060018060a01b036101a0820151168254916101c060ff60a01b910151151560a01b16916affffffffffffffffffffff60a81b1617179055336000526005602052611577816040600020611f31565b6040519034825261158d60208301600435611d6d565b7f83153f6f4eb274580b1bd5a401763db36820b948b200ca64743b22a3b9d2fe9460403393a360018055005b60405162461bcd60e51b815260206004820152601c60248201527f5374616b65206d7573742062652067726561746572207468616e2030000000006044820152606490fd5b346101b85760603660031901126101b857611617611cae565b60443590600435600052600460205260406000209060018060a01b0316600052602052604060002080548210156101b8576116a39161165591611d87565b506040519061166f826116688184611ddd565b0383611eac565b60ff60018201549181600282015416906003810154600560048301549201549260405197889760e0895260e0890190611d2d565b9560208801521515604087015260608601526080850152818116151560a085015260081c16151560c08301520390f35b346101b85760203660031901126101b85760006101c06040516116f581611e8f565b8281528260208201528260408201528260608201528260808201528260a08201528260c08201528260e08201528261010082015282610120820152826101408201528261016082015282610180820152826101a082015201526004356000526003602052604060002060405161176a81611e8f565b8154815260018201546001600160a01b039081166020830152600283015416604082015260038201546060820152600482015460ff906117af81831660808501611f25565b60081c1691600483101561039e57600c60ff916101e09460a0850152600581015460c0850152600681015460e0850152600781015461010085015260088101546101208501526009810154610140850152600a810154610160850152600b810154610180850152015460018060a01b0381166101a084015260a01c1615156101c08201526101c0604051918051835260018060a01b03602082015116602084015260018060a01b0360408201511660408401526060810151606084015261187e60808201516080850190611d6d565b61189060a082015160a0850190611d7a565b60c081015160c084015260e081015160e084015261010081015161010084015261012081015161012084015261014081015161014084015261016081015161016084015261018081015161018084015260018060a01b036101a0820151166101a0840152015115156101c0820152f35b346101b85760203660031901126101b857611919611c98565b611921611eea565b6001600160a01b03168015611948576001600160601b0360a01b6002541617600255600080f35b60405162461bcd60e51b8152602060048201526016602482015275496e76616c6964206f7261636c65206164647265737360501b6044820152606490fd5b346101b85760403660031901126101b85761199f611cae565b6004356000526020906004825260406000209060018060a01b031660005281526040600020908154916119d183612236565b926119df6040519485611eac565b8084528284018092600052836000206000915b838310611aa55750505050604051918083019381845251809452604083019360408160051b85010192916000955b828710611a2d5785850386f35b909192938280600192603f19898203018552875190611a55825160e0835260e0830190611d2d565b918381015184830152604081015115156040830152606080820151908301526080808201519083015260a08082015115159083015260c08091015115159101529601920196019592919092611a20565b600686600192604099989951611aba81611e73565b604051611ad281611acb818a611ddd565b0382611eac565b8152848601548382015260ff806002880154161515604083015260038701546060830152600487015460808301526005870154818116151560a084015260081c16151560c08201528152019201920191909594956119f2565b346101b85760003660031901126101b8576002546040516001600160a01b039091168152602090f35b346101b85760403660031901126101b857611b6d611c98565b6001600160a01b03166000908152600560205260409020805460243591908210156101b857602091611b9e91611cff565b90546040519160031b1c8152f35b346101b85760003660031901126101b8576020600654604051908152f35b346101b8576020806003193601126101b8576001600160a01b03611bec611c98565b1660005260058152604060002090604051908181845491828152019360005281600020916000905b828210611c37576111cc85611c2b81890382611eac565b60405191829182611cc4565b835486529485019460019384019390910190611c14565b346101b85760203660031901126101b85760043560038110156101b857611c76602091611c7f565b54604051908152f35b600381101561039e576000526009602052604060002090565b600435906001600160a01b03821682036101b857565b602435906001600160a01b03821682036101b857565b6020908160408183019282815285518094520193019160005b828110611ceb575050505090565b835185529381019392810192600101611cdd565b8054821015611d175760005260206000200190600090565b634e487b7160e01b600052603260045260246000fd5b919082519283825260005b848110611d59575050826000602080949584010152601f8019910116010190565b602081830181015184830182015201611d38565b90600382101561039e5752565b90600482101561039e5752565b8054821015611d17576000526006602060002091020190600090565b90600182811c92168015611dd3575b6020831014611dbd57565b634e487b7160e01b600052602260045260246000fd5b91607f1691611db2565b9060009291805491611dee83611da3565b918282526001938481169081600014611e505750600114611e10575b50505050565b90919394506000526020928360002092846000945b838610611e3c575050505001019038808080611e0a565b805485870183015294019385908201611e25565b9294505050602093945060ff191683830152151560051b01019038808080611e0a565b60e0810190811067ffffffffffffffff821117610d9257604052565b6101e0810190811067ffffffffffffffff821117610d9257604052565b90601f8019910116810190811067ffffffffffffffff821117610d9257604052565b67ffffffffffffffff8111610d9257601f01601f191660200190565b6000546001600160a01b03163303611efe57565b60405163118cdaa760e01b8152336004820152602490fd5b60001981146102d95760010190565b600382101561039e5752565b8054600160401b811015610d9257611f4e91600182018155611cff565b819291549060031b91821b91600019901b1916179055565b600260015414611f77576002600155565b604051633ee5aeb560e01b8152600490fd5b3d15611fb4573d90611f9a82611ece565b91611fa86040519384611eac565b82523d6000602084013e565b606090565b15611fc057565b60405162461bcd60e51b815260206004820152600f60248201526e4475656c206e6f742061637469766560881b6044820152606490fd5b908160609103126101b857805191602082015160ff811681036101b85760409092015190565b919082039182116102d957565b916000928352602090600382526040918285209260048083528187209560018060a01b03809116968789528452828820948896895b8754811015612211576120728189611d87565b50888c8660ff918b8b8b856005809901541615806121fa575b156121b4576120c8966120a48a60029788541692611d87565b50925193849263f66a1b7160e01b845283015281806060998a956024830190611ddd565b03915afa9485156121aa57948e9487948461211894612149998c9b9795612189575b5050506120f78988611d87565b500154161561217157600161210c8887611d87565b50015412958694611d87565b5001805460ff1916600117905561212f858d611d87565b50019061ff00825491151560081b169061ff001916179055565b61215c575b61215790611f16565b61205f565b9761216961215791611f16565b98905061214e565b600161217d8887611d87565b50015413958694611d87565b6121a0929550803d10610de857610dd88183611eac565b50509238806120ea565b8c513d84823e3d90fd5b5050505050826121c5858394611d87565b5001541691826121df575b505061215c5761215790611f16565b9091506121ec838b611d87565b50015460081c1638806121d0565b50806122068a89611d87565b50015442101561208b565b5096979550975092505050600183015416146000146122305760080155565b600a0155565b67ffffffffffffffff8111610d925760051b6020019056fea26469706673582212200a9dedb965769c5f950044bbcf862df9201a6b1d9967805c65ee16739714b78564736f6c63430008140033",
  "linkReferences": {},
  "deployedLinkReferences": {}
}