{
  "_format": "hh-sol-artifact-1",
  "contractName": "PredictionGame",
  "sourceName": "contracts/PredictionGame.sol",
  "abi": [
    {
      "inputs": [
        {
          "internalType": "address",
          "name": "_priceOracle",
          "type": "address"
        }
      ],
      "stateMutability": "nonpayable",
      "type": "constructor"
    },
    {
      "inputs": [
        {
          "internalType": "address",
          "name": "owner",
          "type": "address"
        }
      ],
      "name": "OwnableInvalidOwner",
      "type": "error"
    },
    {
      "inputs": [
        {
          "internalType": "address",
          "name": "account",
          "type": "address"
        }
      ],
      "name": "OwnableUnauthorizedAccount",
      "type": "error"
    },
    {
      "inputs": [],
      "name": "ReentrancyGuardReentrantCall",
      "type": "error"
    },
    {
      "anonymous": false,
      "inputs": [
        {
          "indexed": true,
          "internalType": "address",
          "name": "previousOwner",
          "type": "address"
        },
        {
          "indexed": true,
          "internalType": "address",
          "name": "newOwner",
          "type": "address"
        }
      ],
      "name": "OwnershipTransferred",
      "type": "event"
    },
    {
      "anonymous": false,
      "inputs": [
        {
          "indexed": true,
          "internalType": "uint256",
          "name": "predictionId",
          "type": "uint256"
        },
        {
          "indexed": true,
          "internalType": "address",
          "name": "user",
          "type": "address"
        },
        {
          "indexed": false,
          "internalType": "string",
          "name": "cryptoSymbol",
          "type": "string"
        },
        {
          "indexed": false,
          "internalType": "int256",
          "name": "initialPrice",
          "type": "int256"
        },
        {
          "indexed": false,
          "internalType": "bool",
          "name": "predictedHigher",
          "type": "bool"
        },
        {
          "indexed": false,
          "internalType": "uint256",
          "name": "resolutionTime",
          "type": "uint256"
        }
      ],
      "name": "PredictionMade",
      "type": "event"
    },
    {
      "anonymous": false,
      "inputs": [
        {
          "indexed": true,
          "internalType": "uint256",
          "name": "predictionId",
          "type": "uint256"
        },
        {
          "indexed": true,
          "internalType": "address",
          "name": "user",
          "type": "address"
        },
        {
          "indexed": false,
          "internalType": "bool",
          "name": "won",
          "type": "bool"
        },
        {
          "indexed": false,
          "internalType": "int256",
          "name": "initialPrice",
          "type": "int256"
        },
        {
          "indexed": false,
          "internalType": "int256",
          "name": "finalPrice",
          "type": "int256"
        }
      ],
      "name": "PredictionResolved",
      "type": "event"
    },
    {
      "anonymous": false,
      "inputs": [
        {
          "indexed": true,
          "internalType": "address",
          "name": "user",
          "type": "address"
        },
        {
          "indexed": false,
          "internalType": "uint256",
          "name": "totalPredictions",
          "type": "uint256"
        },
        {
          "indexed": false,
          "internalType": "uint256",
          "name": "correctPredictions",
          "type": "uint256"
        },
        {
          "indexed": false,
          "internalType": "uint256",
          "name": "score",
          "type": "uint256"
        }
      ],
      "name": "UserStatsUpdated",
      "type": "event"
    },
    {
      "inputs": [],
      "name": "POINTS_PER_LOSS",
      "outputs": [
        {
          "internalType": "uint256",
          "name": "",
          "type": "uint256"
        }
      ],
      "stateMutability": "view",
      "type": "function"
    },
    {
      "inputs": [],
      "name": "POINTS_PER_WIN",
      "outputs": [
        {
          "internalType": "uint256",
          "name": "",
          "type": "uint256"
        }
      ],
      "stateMutability": "view",
      "type": "function"
    },
    {
      "inputs": [],
      "name": "PREDICTION_DURATION",
      "outputs": [
        {
          "internalType": "uint256",
          "name": "",
          "type": "uint256"
        }
      ],
      "stateMutability": "view",
      "type": "function"
    },
    {
      "inputs": [
        {
          "internalType": "uint256[]",
          "name": "predictionIds",
          "type": "uint256[]"
        }
      ],
      "name": "batchResolvePredictions",
      "outputs": [],
      "stateMutability": "nonpayable",
      "type": "function"
    },
    {
      "inputs": [
        {
          "internalType": "uint256",
          "name": "topN",
          "type": "uint256"
        }
      ],
      "name": "getLeaderboard",
      "outputs": [
        {
          "internalType": "address[]",
          "name": "addresses",
          "type": "address[]"
        },
        {
          "internalType": "uint256[]",
          "name": "scores",
          "type": "uint256[]"
        }
      ],
      "stateMutability": "view",
      "type": "function"
    },
    {
      "inputs": [
        {
          "internalType": "uint256",
          "name": "predictionId",
          "type": "uint256"
        }
      ],
      "name": "getPrediction",
      "outputs": [
        {
          "components": [
            {
              "internalType": "address",
              "name": "user",
              "type": "address"
            },
            {
              "internalType": "string",
              "name": "cryptoSymbol",
              "type": "string"
            },
            {
              "internalType": "int256",
              "name": "initialPrice",
              "type": "int256"
            },
            {
              "internalType": "bool",
              "name": "predictedHigher",
              "type": "bool"
            },
            {
              "internalType": "uint256",
              "name": "timestamp",
              "type": "uint256"
            },
            {
              "internalType": "uint256",
              "name": "resolutionTime",
              "type": "uint256"
            },
            {
              "internalType": "bool",
              "name": "resolved",
              "type": "bool"
            },
            {
              "internalType": "bool",
              "name": "won",
              "type": "bool"
            }
          ],
          "internalType": "struct PredictionGame.Prediction",
          "name": "",
          "type": "tuple"
        }
      ],
      "stateMutability": "view",
      "type": "function"
    },
    {
      "inputs": [
        {
          "internalType": "address",
          "name": "user",
          "type": "address"
        }
      ],
      "name": "getUserPredictions",
      "outputs": [
        {
          "internalType": "uint256[]",
          "name": "",
          "type": "uint256[]"
        }
      ],
      "stateMutability": "view",
      "type": "function"
    },
    {
      "inputs": [
        {
          "internalType": "address",
          "name": "user",
          "type": "address"
        }
      ],
      "name": "getUserStats",
      "outputs": [
        {
          "components": [
            {
              "internalType": "uint256",
              "name": "totalPredictions",
              "type": "uint256"
            },
            {
              "internalType": "uint256",
              "name": "correctPredictions",
              "type": "uint256"
            },
            {
              "internalType": "uint256",
              "name": "incorrectPredictions",
              "type": "uint256"
            },
            {
              "internalType": "uint256",
              "name": "pendingPredictions",
              "type": "uint256"
            },
            {
              "internalType": "uint256",
              "name": "score",
              "type": "uint256"
            }
          ],
          "internalType": "struct PredictionGame.UserStats",
          "name": "",
          "type": "tuple"
        }
      ],
      "stateMutability": "view",
      "type": "function"
    },
    {
      "inputs": [
        {
          "internalType": "uint256",
          "name": "",
          "type": "uint256"
        }
      ],
      "name": "leaderboardUsers",
      "outputs": [
        {
          "internalType": "address",
          "name": "",
          "type": "address"
        }
      ],
      "stateMutability": "view",
      "type": "function"
    },
    {
      "inputs": [
        {
          "internalType": "string",
          "name": "cryptoSymbol",
          "type": "string"
        },
        {
          "internalType": "bool",
          "name": "predictedHigher",
          "type": "bool"
        }
      ],
      "name": "makePrediction",
      "outputs": [],
      "stateMutability": "nonpayable",
      "type": "function"
    },
    {
      "inputs": [],
      "name": "owner",
      "outputs": [
        {
          "internalType": "address",
          "name": "",
          "type": "address"
        }
      ],
      "stateMutability": "view",
      "type": "function"
    },
    {
      "inputs": [],
      "name": "predictionCounter",
      "outputs": [
        {
          "internalType": "uint256",
          "name": "",
          "type": "uint256"
        }
      ],
      "stateMutability": "view",
      "type": "function"
    },
    {
      "inputs": [
        {
          "internalType": "uint256",
          "name": "",
          "type": "uint256"
        }
      ],
      "name": "predictions",
      "outputs": [
        {
          "internalType": "address",
          "name": "user",
          "type": "address"
        },
        {
          "internalType": "string",
          "name": "cryptoSymbol",
          "type": "string"
        },
        {
          "internalType": "int256",
          "name": "initialPrice",
          "type": "int256"
        },
        {
          "internalType": "bool",
          "name": "predictedHigher",
          "type": "bool"
        },
        {
          "internalType": "uint256",
          "name": "timestamp",
          "type": "uint256"
        },
        {
          "internalType": "uint256",
          "name": "resolutionTime",
          "type": "uint256"
        },
        {
          "internalType": "bool",
          "name": "resolved",
          "type": "bool"
        },
        {
          "internalType": "bool",
          "name": "won",
          "type": "bool"
        }
      ],
      "stateMutability": "view",
      "type": "function"
    },
    {
      "inputs": [],
      "name": "priceOracle",
      "outputs": [
        {
          "internalType": "contract PriceOracle",
          "name": "",
          "type": "address"
        }
      ],
      "stateMutability": "view",
      "type": "function"
    },
    {
      "inputs": [],
      "name": "renounceOwnership",
      "outputs": [],
      "stateMutability": "nonpayable",
      "type": "function"
    },
    {
      "inputs": [
        {
          "internalType": "uint256",
          "name": "predictionId",
          "type": "uint256"
        }
      ],
      "name": "resolvePrediction",
      "outputs": [],
      "stateMutability": "nonpayable",
      "type": "function"
    },
    {
      "inputs": [
        {
          "internalType": "address",
          "name": "newOwner",
          "type": "address"
        }
      ],
      "name": "transferOwnership",
      "outputs": [],
      "stateMutability": "nonpayable",
      "type": "function"
    },
    {
      "inputs": [
        {
          "internalType": "address",
          "name": "newOracle",
          "type": "address"
        }
      ],
      "name": "updatePriceOracle",
      "outputs": [],
      "stateMutability": "nonpayable",
      "type": "function"
    },
    {
      "inputs": [
        {
          "internalType": "address",
          "name": "",
          "type": "address"
        },
        {
          "internalType": "uint256",
          "name": "",
          "type": "uint256"
        }
      ],
      "name": "userPredictions",
      "outputs": [
        {
          "internalType": "uint256",
          "name": "",
          "type": "uint256"
        }
      ],
      "stateMutability": "view",
      "type": "function"
    },
    {
      "inputs": [
        {
          "internalType": "address",
          "name": "",
          "type": "address"
        }
      ],
      "name": "userStats",
      "outputs": [
        {
          "internalType": "uint256",
          "name": "totalPredictions",
          "type": "uint256"
        },
        {
          "internalType": "uint256",
          "name": "correctPredictions",
          "type": "uint256"
        },
        {
          "internalType": "uint256",
          "name": "incorrectPredictions",
          "type": "uint256"
        },
        {
          "internalType": "uint256",
          "name": "pendingPredictions",
          "type": "uint256"
        },
        {
          "internalType": "uint256",
          "name": "score",
          "type": "uint256"
        }
      ],
      "stateMutability": "view",
      "type": "function"
    }
  ],
  "bytecode": "0x60803461011657601f611a0938819003918201601f19168301916001600160401b0383118484101761011b5780849260209460405283398101031261011657516001600160a01b03808216918290036101165733156100fd576000549060018060a01b0319913383821617600055604051913391167f8be0079c531659141344cd1fd0a4f28419497f9722a3daafe3b4186f6b6457e0600080a36001805582156100bb575060025416176002556040516118d790816101328239f35b62461bcd60e51b815260206004820152601660248201527f496e76616c6964206f7261636c652061646472657373000000000000000000006044820152606490fd5b604051631e4fbdf760e01b815260006004820152602490fd5b600080fd5b634e487b7160e01b600052604160045260246000fdfe6080604052600436101561001257600080fd5b60e0600035811c80624fbbb0146114065780631784333b14610e67578063193be8f914610e495780632630c12f14610e2057806327824f0014610b8057806332c69a0f14610b6457806339d1fc8214610ade5780634e43603a14610a2457806354edc06014610a08578063715018a6146109af5780638a65d874146109495780638da5cb5b146109205780639aa6080914610902578063a34b46fe146106ee578063c285f8531461065f578063e00df1351461061d578063e69fe3dc14610316578063f2fde38b1461028d578063f6c33179146102355763fe83bece146100f857600080fd5b346102305760208060031936011261023057600082604051610119816114e7565b8281526060848201528260408201528260608201528260808201528260a08201528260c08201520152600435600052600381526040600020906040519161015f836114e7565b80546001600160a01b0390811684529361017b60018301611542565b908385019182526002830154936040860194855260ff60038501541693606087019415158552600481015460808801908152600660058301549260a08a0193845201549460c089019360ff87161515855260ff868b019760081c16151587526040519a8b9a828c525116908a01525195610203610100978860408c01526101208b01906115e8565b975160608a015251151560808901525160a08801525160c087015251151590850152511515908301520390f35b600080fd5b346102305760403660031901126102305761024e611628565b6001600160a01b03166000908152600560205260409020805460243591908210156102305760209161027f916116bf565b90546040519160031b1c8152f35b34610230576020366003190112610230576102a6611628565b6102ae6116d7565b6001600160a01b039081169081156102fd57600054826001600160601b0360a01b821617600055167f8be0079c531659141344cd1fd0a4f28419497f9722a3daafe3b4186f6b6457e0600080a3005b604051631e4fbdf760e01b815260006004820152602490fd5b3461023057602080600319360112610230576004356103336117e0565b60008181526003835260409020805490916001600160a01b03918216156105d857600683019283549160ff83166105a05760058201544210610566578360025416956040519363f66a1b7160e01b8552606085600199818061039a8d8a0160048301611738565b03915afa96871561055a57889560009861051d575b50600492916103f39160ff60038801541660001461050e5760028701548a139788925b61ff001990911661ffff199091161791151560081b61ff0016919091179055565b85845416600052526040600020926003840161040f81546117d3565b905580156104d4578684016104248154611729565b90556004840195865491600a83018093116104be57610489600080516020611862833981519152976000805160206118828339815191529460029a555b8654169889960154926040519384938460409194939260608201951515825260208201520152565b0390a380546104b7600486840154930154604051938493846040919493926060820195825260208201520152565b0390a28055005b634e487b7160e01b600052601160045260246000fd5b60029560008051602061188283398151915291610489600080516020611862833981519152978988016105078154611729565b9055610461565b60028701548a129788926103d2565b6103f3919850916105476004949360603d8111610553575b61053f8183611520565b810190611703565b505098915091926103af565b503d610535565b6040513d6000823e3d90fd5b60405162461bcd60e51b815260048101879052601260248201527110d85b9b9bdd081c995cdbdb1d99481e595d60721b6044820152606490fd5b60405162461bcd60e51b815260048101879052601060248201526f105b1c9958591e481c995cdbdb1d995960821b6044820152606490fd5b60405162461bcd60e51b815260048101859052601960248201527f50726564696374696f6e20646f6573206e6f74206578697374000000000000006044820152606490fd5b346102305760203660031901126102305760043560065481101561023057610646602091611672565b905460405160039290921b1c6001600160a01b03168152f35b3461023057602080600319360112610230576001600160a01b03610681611628565b1660005260058152604060002090604051808383829554938481520190600052836000209260005b858282106106d8575050506106c092500383611520565b6106d460405192828493845283019061163e565b0390f35b85548452600195860195889550930192016106a9565b34610230576020806003193601126102305760065490600435808310156108fd5750815b61071b8361181b565b906107258461181b565b9360005b8181106108a3575060005b8181106107f55750506107468161181b565b936107508261181b565b9260005b8381106107b257505050506040519160408301604084528451809152816060850195019060005b818110610795578587038487015285806106d4898861163e565b82516001600160a01b03168752958301959183019160010161077b565b6107f0906001600160a01b036107c8828561184d565b51166107d4828a61184d565b526107df818561184d565b516107ea828861184d565b52611729565b610754565b600181018082116104be575b828110610817575061081290611729565b610734565b8061082561083b928961184d565b51610830848a61184d565b511061084057611729565b610801565b61084a838961184d565b51610855828a61184d565b51610860858b61184d565b5261086b828a61184d565b526001600160a01b038061087f858961184d565b51169061088c838961184d565b5116610898858961184d565b526107ea828861184d565b806108b06108f892611672565b90546001600160a01b039160039190821b1c82166108ce848961184d565b526108d883611672565b9054911b1c16600052600486526004604060002001546107ea828961184d565b610729565b610712565b34610230576000366003190112610230576020604051620151808152f35b34610230576000366003190112610230576000546040516001600160a01b039091168152602090f35b34610230576020366003190112610230576001600160a01b0361096a611628565b16600052600460205260a06040600020805490600181015490600281015460046003830154920154926040519485526020850152604084015260608301526080820152f35b34610230576000366003190112610230576109c86116d7565b600080546001600160a01b0319811682556001600160a01b03167f8be0079c531659141344cd1fd0a4f28419497f9722a3daafe3b4186f6b6457e08280a3005b3461023057600036600319011261023057602060405160008152f35b3461023057602036600319011261023057610a3d611628565b60006080604051610a4d81611504565b828152826020820152826040820152826060820152015260018060a01b0316600052600460205260a06040600020604051610a8781611504565b81549182825260018101546020830190815260028201549060408401918252608060046003850154946060870195865201549401938452604051948552516020850152516040840152516060830152516080820152f35b3461023057602036600319011261023057610af7611628565b610aff6116d7565b6001600160a01b03168015610b26576001600160601b0360a01b6002541617600255600080f35b60405162461bcd60e51b8152602060048201526016602482015275496e76616c6964206f7261636c65206164647265737360501b6044820152606490fd5b34610230576000366003190112610230576020604051600a8152f35b346102305760203660031901126102305767ffffffffffffffff806004351161023057366023600435011215610230576004356004013511610230573660246004356004013560051b60043501011161023057610bdb6117e0565b60005b600435600401358110610bf15760018055005b60248160051b600435010135600052600360205260406000209060018060a01b03825416151580610e11575b80610e03575b610c37575b610c329150611729565b610bde565b60025460405163f66a1b7160e01b81529060609082906001600160a01b03168180610c686001890160048301611738565b03915afa90811561055a57600091610de2575b50600383015460ff1615610dd657600283015481135b60068401805461ffff191682151560081b61ff001617600117905583546001600160a01b03166000908152600460205260409020600381018054610cd4906117d3565b90558115610d9c5760018101610cea8154611729565b90556004810194855492600a84018094116104be5760008051602061188283398151915260029560008051602061186283398151915295610c3299555b60018060a01b038454169687940154610d6560405192839260248c60051b600435010135968460409194939260608201951515825260208201520152565b0390a38054610d9460046001840154930154604051938493846040919493926060820195825260208201520152565b0390a2610c28565b610c329460008051602061186283398151915292600080516020611882833981519152600295868501610dcf8154611729565b9055610d27565b60028301548112610c91565b610dfb915060603d6060116105535761053f8183611520565b505083610c7b565b506005820154421015610c23565b5060ff60068301541615610c1d565b34610230576000366003190112610230576002546040516001600160a01b039091168152602090f35b34610230576000366003190112610230576020600854604051908152f35b5034610230576040366003190112610230576004359067ffffffffffffffff8211610230573660238301121561023057816004013567ffffffffffffffff811161128d5760405192610ec3601f8301601f191660200185611520565b818452366024838301011161023057816000926024602093018387013784010152602435801515810361023057600254604051630603fbf960e31b81526020600482018190526001600160a01b0390921694918180610f2560248201866115e8565b0381885afa90811561055a576000916113cb575b501561138f576060604051809563f66a1b7160e01b8252602060048301528180610f6660248201876115e8565b03915afa93841561055a5760009461136d575b5060085492610f8784611729565b60085562015180420142116104be5760405190610fa3826114e7565b33825260208201838152866040840152841515606084015242608084015262015180420160a0840152600060c084015260008284015285600052600360205260406000209060018060a01b038451166001600160601b0360a01b8354161782555180519067ffffffffffffffff821161128d5761102360018401546114ad565b601f8111611326575b50602090601f83116001146112ae5791806110da969594926006946000926112a3575b50508160011b916000199060031b1c19161760018201555b6040840151600282015561109060608501511515600383019060ff801983541691151516179055565b6080840151600482015560a0840151600582015501916110c260c08201511515849060ff801983541691151516179055565b0151815461ff00191690151560081b61ff0016179055565b33600052600560205260406000209182549268010000000000000000938481101561128d5761110e916001820181556116bf565b81549060031b9086821b91600019901b1916179055336000526004602052604060002061113b8154611729565b905533600052600460205260036040600020016111588154611729565b905533600052600760205260ff604060002054161561121a575b7f1b113ec8c4e0a316134141d525ec3f7eacc607be8ed2ceb735c52c4ad9d44d4a92506111aa604051926080845260808401906115e8565b9460208301521515604082015262015180420160608201528033940390a3336000526004602052604060002060008051602061186283398151915281549160046001820154910154906112156040519283923396846040919493926060820195825260208201520152565b0390a2005b6006549283101561128d576112568360017f1b113ec8c4e0a316134141d525ec3f7eacc607be8ed2ceb735c52c4ad9d44d4a9501600655611672565b81549060031b9033821b9160018060a01b03901b19161790553360005260076020526040600020600160ff19825416179055611172565b634e487b7160e01b600052604160045260246000fd5b01519050388061104f565b906001840160005260206000209160005b601f198516811061130e5750926110da9695949260019260069583601f198116106112f5575b505050811b016001820155611067565b015160001960f88460031b161c191690553880806112e5565b919260206001819286850151815501940192016112bf565b600184016000526020600020601f840160051c810160208510611366575b601f830160051c8201811061135a57505061102c565b60008155600101611344565b5080611344565b61138691945060603d81116105535761053f8183611520565b50509238610f79565b60405162461bcd60e51b815260206004820152601460248201527310dc9e5c1d1bc81b9bdd081cdd5c1c1bdc9d195960621b6044820152606490fd5b90506020813d6020116113fe575b816113e660209383611520565b81010312610230575180151581036102305738610f39565b3d91506113d9565b503461023057602036600319011261023057600435600090815260036020526040902080546001600160a01b03169061144160018201611542565b9260ff60028301549281600382015416906004810154600660058301549201549261147e604051998a998a526101008060208c01528a01906115e8565b96604089015215156060880152608087015260a0860152818116151560c086015260081c161515908301520390f35b90600182811c921680156114dd575b60208310146114c757565b634e487b7160e01b600052602260045260246000fd5b91607f16916114bc565b610100810190811067ffffffffffffffff82111761128d57604052565b60a0810190811067ffffffffffffffff82111761128d57604052565b90601f8019910116810190811067ffffffffffffffff82111761128d57604052565b9060405191826000825492611556846114ad565b9081845260019485811690816000146115c55750600114611582575b505061158092500383611520565b565b9093915060005260209081600020936000915b8183106115ad57505061158093508201013880611572565b85548884018501529485019487945091830191611595565b91505061158094506020925060ff191682840152151560051b8201013880611572565b919082519283825260005b848110611614575050826000602080949584010152601f8019910116010190565b6020818301810151848301820152016115f3565b600435906001600160a01b038216820361023057565b90815180825260208080930193019160005b82811061165e575050505090565b835185529381019392810192600101611650565b6006548110156116a95760066000527ff652222313e28459528d920b65115c16c04f3efc82aaedc97be59f3f377c0d3f0190600090565b634e487b7160e01b600052603260045260246000fd5b80548210156116a95760005260206000200190600090565b6000546001600160a01b031633036116eb57565b60405163118cdaa760e01b8152336004820152602490fd5b9081606091031261023057805191602082015160ff811681036102305760409092015190565b60001981146104be5760010190565b90602091828152600092825461174d816114ad565b93848385015260019182811690816000146117ae5750600114611773575b505050505090565b6000908152828120949550935b85851061179a57505050604092500101388080808061176b565b805485850160400152938201938101611780565b93505050506040935060ff929192191683830152151560051b0101388080808061176b565b80156104be576000190190565b6002600154146117f1576002600155565b604051633ee5aeb560e01b8152600490fd5b67ffffffffffffffff811161128d5760051b60200190565b9061182582611803565b6118326040519182611520565b8281528092611843601f1991611803565b0190602036910137565b80518210156116a95760209160051b01019056fe40cefa1b0a671454e00faf5832419143c26c1e05e84c51796776ff673f2de897429ab055f6a5c2ea833c956798c43cbb86bf286a32a9be41865548aec20551eea2646970667358221220532c9ddb8283cb04ac82fe1f91de66607da53d26f8dfaf1e5b9b6cc42db3416e64736f6c63430008140033",
  "linkReferences": {},
  "deployedLinkReferences": {}
}