{
  "_format": "hh-sol-artifact-1",
  "contractName": "PriceOracle",
  "sourceName": "contracts/PriceOracle.sol",
  "abi": [
    {
      "inputs": [],
      "stateMutability": "nonpayable",
      "type": "constructor"
    },
    {
      "inputs": [
        {
          "internalType": "address",
          "name": "owner",
          "type": "address"
        }
      ],
      "name": "OwnableInvalidOwner",
      "type": "error"
    },
    {
      "inputs": [
        {
          "internalType": "address",
          "name": "account",
          "type": "address"
        }
      ],
      "name": "OwnableUnauthorizedAccount",
      "type": "error"
    },
    {
      "anonymous": false,
      "inputs": [
        {
          "indexed": true,
          "internalType": "address",
          "name": "previousOwner",
          "type": "address"
        },
        {
          "indexed": true,
          "internalType": "address",
          "name": "newOwner",
          "type": "address"
        }
      ],
      "name": "OwnershipTransferred",
      "type": "event"
    },
    {
      "anonymous": false,
      "inputs": [
        {
          "indexed": true,
          "internalType": "string",
          "name": "symbol",
          "type": "string"
        },
        {
          "indexed": false,
          "internalType": "address",
          "name": "priceFeed",
          "type": "address"
        }
      ],
      "name": "PriceFeedAdded",
      "type": "event"
    },
    {
      "anonymous": false,
      "inputs": [
        {
          "indexed": true,
          "internalType": "string",
          "name": "symbol",
          "type": "string"
        }
      ],
      "name": "PriceFeedRemoved",
      "type": "event"
    },
    {
      "anonymous": false,
      "inputs": [
        {
          "indexed": true,
          "internalType": "string",
          "name": "symbol",
          "type": "string"
        },
        {
          "indexed": false,
          "internalType": "address",
          "name": "priceFeed",
          "type": "address"
        }
      ],
      "name": "PriceFeedUpdated",
      "type": "event"
    },
    {
      "inputs": [
        {
          "internalType": "string",
          "name": "symbol",
          "type": "string"
        },
        {
          "internalType": "address",
          "name": "priceFeedAddress",
          "type": "address"
        }
      ],
      "name": "addPriceFeed",
      "outputs": [],
      "stateMutability": "nonpayable",
      "type": "function"
    },
    {
      "inputs": [
        {
          "internalType": "string",
          "name": "symbol",
          "type": "string"
        }
      ],
      "name": "getLatestPrice",
      "outputs": [
        {
          "internalType": "int256",
          "name": "price",
          "type": "int256"
        },
        {
          "internalType": "uint8",
          "name": "decimals",
          "type": "uint8"
        },
        {
          "internalType": "uint256",
          "name": "timestamp",
          "type": "uint256"
        }
      ],
      "stateMutability": "view",
      "type": "function"
    },
    {
      "inputs": [
        {
          "internalType": "string",
          "name": "symbol",
          "type": "string"
        }
      ],
      "name": "getPriceFeedAddress",
      "outputs": [
        {
          "internalType": "address",
          "name": "",
          "type": "address"
        }
      ],
      "stateMutability": "view",
      "type": "function"
    },
    {
      "inputs": [],
      "name": "getSupportedCryptos",
      "outputs": [
        {
          "internalType": "string[]",
          "name": "",
          "type": "string[]"
        }
      ],
      "stateMutability": "view",
      "type": "function"
    },
    {
      "inputs": [
        {
          "internalType": "string",
          "name": "symbol",
          "type": "string"
        }
      ],
      "name": "isCryptoSupported",
      "outputs": [
        {
          "internalType": "bool",
          "name": "",
          "type": "bool"
        }
      ],
      "stateMutability": "view",
      "type": "function"
    },
    {
      "inputs": [],
      "name": "owner",
      "outputs": [
        {
          "internalType": "address",
          "name": "",
          "type": "address"
        }
      ],
      "stateMutability": "view",
      "type": "function"
    },
    {
      "inputs": [
        {
          "internalType": "string",
          "name": "",
          "type": "string"
        }
      ],
      "name": "priceFeeds",
      "outputs": [
        {
          "internalType": "contract AggregatorV3Interface",
          "name": "",
          "type": "address"
        }
      ],
      "stateMutability": "view",
      "type": "function"
    },
    {
      "inputs": [],
      "name": "renounceOwnership",
      "outputs": [],
      "stateMutability": "nonpayable",
      "type": "function"
    },
    {
      "inputs": [
        {
          "internalType": "uint256",
          "name": "",
          "type": "uint256"
        }
      ],
      "name": "supportedCryptos",
      "outputs": [
        {
          "internalType": "string",
          "name": "",
          "type": "string"
        }
      ],
      "stateMutability": "view",
      "type": "function"
    },
    {
      "inputs": [
        {
          "internalType": "address",
          "name": "newOwner",
          "type": "address"
        }
      ],
      "name": "transferOwnership",
      "outputs": [],
      "stateMutability": "nonpayable",
      "type": "function"
    },
    {
      "inputs": [
        {
          "internalType": "string",
          "name": "symbol",
          "type": "string"
        },
        {
          "internalType": "address",
          "name": "priceFeedAddress",
          "type": "address"
        }
      ],
      "name": "updatePriceFeed",
      "outputs": [],
      "stateMutability": "nonpayable",
      "type": "function"
    }
  ],
  "bytecode": "0x6080806040523461007a5733156100645760008054336001600160a01b03198216811783556040519290916001600160a01b0316907f8be0079c531659141344cd1fd0a4f28419497f9722a3daafe3b4186f6b6457e09080a3610cbe90816100808239f35b631e4fbdf760e01b815260006004820152602490fd5b600080fdfe6040608081526004908136101561001557600080fd5b6000803560e01c80630932a2141461088f5780630dc16e1f14610602578063301fdfc814610598578063715018a61461053e57806375b5bef61461043c5780638da5cb5b14610414578063cb8ae86c146103e0578063d28fe38e1461037c578063f2fde38b146102ed578063f66a1b71146101035763f6ccbadd1461009957600080fd5b346101005760203660031901126101005782359067ffffffffffffffff821161010057506020926100cc913691016109c6565b826100df83519283815193849201610a64565b6001908201908152819003830190205490516001600160a01b039091168152f35b80fd5b5090346102e957602090816003193601126102e557833567ffffffffffffffff81116102e15761013690369086016109c6565b8261014983519283815193849201610a64565b600190820190815281900383019020546001600160a01b03169182156102a8578151633fabe5a360e21b81529360a0858781875afa9384156102105781958295610254575b508186131561021c57829084519788809263313ce56760e01b82525afa9586156102105781966101cf575b505060ff60609583519586521690840152820152f35b9095508181813d8311610209575b6101e7818361098e565b8101031261020557519460ff86168603610100575060ff60606101b9565b8580fd5b503d6101dd565b508251903d90823e3d90fd5b835162461bcd60e51b81528088018490526012602482015271496e76616c6964207072696365206461746160701b6044820152606490fd5b9550935060a0853d82116102a0575b8161027060a0938361098e565b810103126101005761028185610c71565b5081850151610297608060608801519701610c71565b5094933861018e565b3d9150610263565b8490606492519162461bcd60e51b83528201526014602482015273141c9a58d94819995959081b9bdd08199bdd5b9960621b6044820152fd5b8380fd5b8280fd5b5080fd5b509190346102e55760203660031901126102e5576001600160a01b0382358181169391929084900361037857610321610bd9565b831561036257505082546001600160a01b0319811683178455167f8be0079c531659141344cd1fd0a4f28419497f9722a3daafe3b4186f6b6457e08380a380f35b51631e4fbdf760e01b8152908101849052602490fd5b8480fd5b50346101005760203660031901126101005782356002548110156102e9576103a390610aac565b9390936103ce576103ca836103b786610b33565b9051918291602083526020830190610a87565b0390f35b634e487b7160e01b8252819052602490fd5b50346101005760203660031901126101005782359067ffffffffffffffff821161010057506020926100cc913691016109c6565b5090346102e957816003193601126102e957905490516001600160a01b039091168152602090f35b5082346102e957816003193601126102e9576002549067ffffffffffffffff821161052b5750825191602092610477848460051b018261098e565b8281526002825283810192827f405787fa12a823e0f2b7631cc41b3ba8828b3321ca811111fa75cd3aa3bb5ace855b83831061050757505050508451938085019181865251809252858501958260051b8601019392955b8287106104db5785850386f35b9091929382806104f7600193603f198a82030186528851610a87565b96019201960195929190926104ce565b6001888192610519859b98999b610b33565b815201920192019190969493966104a6565b634e487b7160e01b835260419052602482fd5b5034610100578060031936011261010057610557610bd9565b80546001600160a01b03198116825581906001600160a01b03167f8be0079c531659141344cd1fd0a4f28419497f9722a3daafe3b4186f6b6457e08280a380f35b50346101005760203660031901126101005782359067ffffffffffffffff821161010057506020926105cc913691016109c6565b826105df83519283815193849201610a64565b6001908201908152819003830190205490516001600160a01b0390911615158152f35b5091346102e55761061236610a22565b919061061c610bd9565b6001600160a01b0392831691610633831515610c05565b84519082516020958685019161064a818685610a64565b840193878160019687815203019020541661084c5785610674918851809381928851928391610a64565b81018581520301902080546001600160a01b03191685179055600254680100000000000000008110156108395780836106b09201600255610aac565b9290926108275783519167ffffffffffffffff831161081457506106d48354610af9565b601f81116107ce575b5085601f83116001146107475791808061073395937f1899bfed19bb5ad63c2bc7846fb4c1d443587802ecd6529054c82d3fd962cc1b999897958c9361073c575b501b916000199060031b1c1916179055610c51565b9351908152a280f35b86015192503861071e565b83895286892091929190601f1983168a5b8181106107b9575091839161073396947f1899bfed19bb5ad63c2bc7846fb4c1d443587802ecd6529054c82d3fd962cc1b9a99989694106107a0575b5050811b019055610c51565b85015160001960f88460031b161c191690553880610794565b87830151845592850192918901918901610758565b838952868920601f840160051c81019188851061080a575b601f0160051c019082905b8281106107ff5750506106dd565b8a81550182906107f1565b90915081906107e6565b634e487b7160e01b895260419052602488fd5b634e487b7160e01b8852878252602488fd5b634e487b7160e01b885260418252602488fd5b865162461bcd60e51b8152808301879052601960248201527f5072696365206665656420616c726561647920657869737473000000000000006044820152606490fd5b5091346102e55761089f36610a22565b6108a7610bd9565b6001600160a01b03908116926108be841515610c05565b845191835192602081818701956108d6818389610a64565b8101600181520301902054161561094b575091610733602092610925847f74b9819a3b3ab6f1735c195541c4352dec722e0e22f92198d9f1719d2e89a757968851809381928651928391610a64565b81016001815203019020836bffffffffffffffffffffffff60a01b825416179055610c51565b606490602086519162461bcd60e51b8352820152601960248201527f5072696365206665656420646f6573206e6f74206578697374000000000000006044820152fd5b90601f8019910116810190811067ffffffffffffffff8211176109b057604052565b634e487b7160e01b600052604160045260246000fd5b81601f82011215610a1d5780359067ffffffffffffffff82116109b057604051926109fb601f8401601f19166020018561098e565b82845260208383010111610a1d57816000926020809301838601378301015290565b600080fd5b6040600319820112610a1d576004359067ffffffffffffffff8211610a1d57610a4d916004016109c6565b906024356001600160a01b0381168103610a1d5790565b60005b838110610a775750506000910152565b8181015183820152602001610a67565b90602091610aa081518092818552858086019101610a64565b601f01601f1916010190565b600254811015610ae35760026000527f405787fa12a823e0f2b7631cc41b3ba8828b3321ca811111fa75cd3aa3bb5ace0190600090565b634e487b7160e01b600052603260045260246000fd5b90600182811c92168015610b29575b6020831014610b1357565b634e487b7160e01b600052602260045260246000fd5b91607f1691610b08565b9060405191826000825492610b4784610af9565b908184526001948581169081600014610bb65750600114610b73575b5050610b719250038361098e565b565b9093915060005260209081600020936000915b818310610b9e575050610b7193508201013880610b63565b85548884018501529485019487945091830191610b86565b915050610b7194506020925060ff191682840152151560051b8201013880610b63565b6000546001600160a01b03163303610bed57565b60405163118cdaa760e01b8152336004820152602490fd5b15610c0c57565b60405162461bcd60e51b815260206004820152601a60248201527f496e76616c6964207072696365206665656420616464726573730000000000006044820152606490fd5b610c6990602060405192828480945193849201610a64565b810103902090565b519069ffffffffffffffffffff82168203610a1d5756fea2646970667358221220ba8ada83f3311b2759fb9ec2f8ea3918d3ccac4260c3338d6de1cb9d65ff229364736f6c63430008140033",
  "linkReferences": {},
  "deployedLinkReferences": {}
}